{
  "_format": "hh-sol-artifact-1",
  "contractName": "NFTMarkPlace",
  "sourceName": "contracts/nftMartket.sol",
  "abi": [
    {
      "inputs": [],
      "stateMutability": "nonpayable",
      "type": "constructor"
    },
    {
      "anonymous": false,
      "inputs": [
        {
          "indexed": true,
          "internalType": "address",
          "name": "owner",
          "type": "address"
        },
        {
          "indexed": true,
          "internalType": "address",
          "name": "approved",
          "type": "address"
        },
        {
          "indexed": true,
          "internalType": "uint256",
          "name": "tokenId",
          "type": "uint256"
        }
      ],
      "name": "Approval",
      "type": "event"
    },
    {
      "anonymous": false,
      "inputs": [
        {
          "indexed": true,
          "internalType": "address",
          "name": "owner",
          "type": "address"
        },
        {
          "indexed": true,
          "internalType": "address",
          "name": "operator",
          "type": "address"
        },
        {
          "indexed": false,
          "internalType": "bool",
          "name": "approved",
          "type": "bool"
        }
      ],
      "name": "ApprovalForAll",
      "type": "event"
    },
    {
      "anonymous": false,
      "inputs": [
        {
          "indexed": false,
          "internalType": "uint256",
          "name": "tokenID",
          "type": "uint256"
        },
        {
          "indexed": false,
          "internalType": "address",
          "name": "from",
          "type": "address"
        },
        {
          "indexed": false,
          "internalType": "address",
          "name": "to",
          "type": "address"
        },
        {
          "indexed": false,
          "internalType": "string",
          "name": "tokenURI",
          "type": "string"
        },
        {
          "indexed": false,
          "internalType": "uint256",
          "name": "price",
          "type": "uint256"
        }
      ],
      "name": "NFTTransfer",
      "type": "event"
    },
    {
      "anonymous": false,
      "inputs": [
        {
          "indexed": true,
          "internalType": "address",
          "name": "previousOwner",
          "type": "address"
        },
        {
          "indexed": true,
          "internalType": "address",
          "name": "newOwner",
          "type": "address"
        }
      ],
      "name": "OwnershipTransferred",
      "type": "event"
    },
    {
      "anonymous": false,
      "inputs": [
        {
          "indexed": true,
          "internalType": "address",
          "name": "from",
          "type": "address"
        },
        {
          "indexed": true,
          "internalType": "address",
          "name": "to",
          "type": "address"
        },
        {
          "indexed": true,
          "internalType": "uint256",
          "name": "tokenId",
          "type": "uint256"
        }
      ],
      "name": "Transfer",
      "type": "event"
    },
    {
      "inputs": [
        {
          "internalType": "address",
          "name": "to",
          "type": "address"
        },
        {
          "internalType": "uint256",
          "name": "tokenId",
          "type": "uint256"
        }
      ],
      "name": "approve",
      "outputs": [],
      "stateMutability": "nonpayable",
      "type": "function"
    },
    {
      "inputs": [
        {
          "internalType": "address",
          "name": "owner",
          "type": "address"
        }
      ],
      "name": "balanceOf",
      "outputs": [
        {
          "internalType": "uint256",
          "name": "",
          "type": "uint256"
        }
      ],
      "stateMutability": "view",
      "type": "function"
    },
    {
      "inputs": [
        {
          "internalType": "string",
          "name": "tokenURI",
          "type": "string"
        }
      ],
      "name": "createNFT",
      "outputs": [
        {
          "internalType": "uint256",
          "name": "",
          "type": "uint256"
        }
      ],
      "stateMutability": "nonpayable",
      "type": "function"
    },
    {
      "inputs": [
        {
          "internalType": "uint256",
          "name": "tokenId",
          "type": "uint256"
        }
      ],
      "name": "getApproved",
      "outputs": [
        {
          "internalType": "address",
          "name": "",
          "type": "address"
        }
      ],
      "stateMutability": "view",
      "type": "function"
    },
    {
      "inputs": [
        {
          "internalType": "address",
          "name": "owner",
          "type": "address"
        },
        {
          "internalType": "address",
          "name": "operator",
          "type": "address"
        }
      ],
      "name": "isApprovedForAll",
      "outputs": [
        {
          "internalType": "bool",
          "name": "",
          "type": "bool"
        }
      ],
      "stateMutability": "view",
      "type": "function"
    },
    {
      "inputs": [],
      "name": "name",
      "outputs": [
        {
          "internalType": "string",
          "name": "",
          "type": "string"
        }
      ],
      "stateMutability": "view",
      "type": "function"
    },
    {
      "inputs": [],
      "name": "owner",
      "outputs": [
        {
          "internalType": "address",
          "name": "",
          "type": "address"
        }
      ],
      "stateMutability": "view",
      "type": "function"
    },
    {
      "inputs": [
        {
          "internalType": "uint256",
          "name": "tokenId",
          "type": "uint256"
        }
      ],
      "name": "ownerOf",
      "outputs": [
        {
          "internalType": "address",
          "name": "",
          "type": "address"
        }
      ],
      "stateMutability": "view",
      "type": "function"
    },
    {
      "inputs": [],
      "name": "renounceOwnership",
      "outputs": [],
      "stateMutability": "nonpayable",
      "type": "function"
    },
    {
      "inputs": [
        {
          "internalType": "address",
          "name": "from",
          "type": "address"
        },
        {
          "internalType": "address",
          "name": "to",
          "type": "address"
        },
        {
          "internalType": "uint256",
          "name": "tokenId",
          "type": "uint256"
        }
      ],
      "name": "safeTransferFrom",
      "outputs": [],
      "stateMutability": "nonpayable",
      "type": "function"
    },
    {
      "inputs": [
        {
          "internalType": "address",
          "name": "from",
          "type": "address"
        },
        {
          "internalType": "address",
          "name": "to",
          "type": "address"
        },
        {
          "internalType": "uint256",
          "name": "tokenId",
          "type": "uint256"
        },
        {
          "internalType": "bytes",
          "name": "_data",
          "type": "bytes"
        }
      ],
      "name": "safeTransferFrom",
      "outputs": [],
      "stateMutability": "nonpayable",
      "type": "function"
    },
    {
      "inputs": [
        {
          "internalType": "address",
          "name": "operator",
          "type": "address"
        },
        {
          "internalType": "bool",
          "name": "approved",
          "type": "bool"
        }
      ],
      "name": "setApprovalForAll",
      "outputs": [],
      "stateMutability": "nonpayable",
      "type": "function"
    },
    {
      "inputs": [
        {
          "internalType": "bytes4",
          "name": "interfaceId",
          "type": "bytes4"
        }
      ],
      "name": "supportsInterface",
      "outputs": [
        {
          "internalType": "bool",
          "name": "",
          "type": "bool"
        }
      ],
      "stateMutability": "view",
      "type": "function"
    },
    {
      "inputs": [],
      "name": "symbol",
      "outputs": [
        {
          "internalType": "string",
          "name": "",
          "type": "string"
        }
      ],
      "stateMutability": "view",
      "type": "function"
    },
    {
      "inputs": [
        {
          "internalType": "uint256",
          "name": "tokenId",
          "type": "uint256"
        }
      ],
      "name": "tokenURI",
      "outputs": [
        {
          "internalType": "string",
          "name": "",
          "type": "string"
        }
      ],
      "stateMutability": "view",
      "type": "function"
    },
    {
      "inputs": [
        {
          "internalType": "address",
          "name": "from",
          "type": "address"
        },
        {
          "internalType": "address",
          "name": "to",
          "type": "address"
        },
        {
          "internalType": "uint256",
          "name": "tokenId",
          "type": "uint256"
        }
      ],
      "name": "transferFrom",
      "outputs": [],
      "stateMutability": "nonpayable",
      "type": "function"
    },
    {
      "inputs": [
        {
          "internalType": "address",
          "name": "newOwner",
          "type": "address"
        }
      ],
      "name": "transferOwnership",
      "outputs": [],
      "stateMutability": "nonpayable",
      "type": "function"
    }
  ],
  "bytecode": "0x60806040523480156200001157600080fd5b506040518060400160405280600681526020017f4465764e465400000000000000000000000000000000000000000000000000008152506040518060400160405280600781526020017f4e4654436f696e00000000000000000000000000000000000000000000000000815250816000908051906020019062000096929190620001a6565b508060019080519060200190620000af929190620001a6565b505050620000d2620000c6620000d860201b60201c565b620000e060201b60201c565b620002bb565b600033905090565b6000600760009054906101000a900473ffffffffffffffffffffffffffffffffffffffff16905081600760006101000a81548173ffffffffffffffffffffffffffffffffffffffff021916908373ffffffffffffffffffffffffffffffffffffffff1602179055508173ffffffffffffffffffffffffffffffffffffffff168173ffffffffffffffffffffffffffffffffffffffff167f8be0079c531659141344cd1fd0a4f28419497f9722a3daafe3b4186f6b6457e060405160405180910390a35050565b828054620001b49062000285565b90600052602060002090601f016020900481019282620001d8576000855562000224565b82601f10620001f357805160ff191683800117855562000224565b8280016001018555821562000224579182015b828111156200022357825182559160200191906001019062000206565b5b50905062000233919062000237565b5090565b5b808211156200025257600081600090555060010162000238565b5090565b7f4e487b7100000000000000000000000000000000000000000000000000000000600052602260045260246000fd5b600060028204905060018216806200029e57607f821691505b60208210811415620002b557620002b462000256565b5b50919050565b61300280620002cb6000396000f3fe608060405234801561001057600080fd5b506004361061010b5760003560e01c8063715018a6116100a2578063b88d4fde11610071578063b88d4fde146102a4578063c87b56dd146102c0578063da2ed03e146102f0578063e985e9c514610320578063f2fde38b146103505761010b565b8063715018a6146102425780638da5cb5b1461024c57806395d89b411461026a578063a22cb465146102885761010b565b806323b872dd116100de57806323b872dd146101aa57806342842e0e146101c65780636352211e146101e257806370a08231146102125761010b565b806301ffc9a71461011057806306fdde0314610140578063081812fc1461015e578063095ea7b31461018e575b600080fd5b61012a60048036038101906101259190611cb6565b61036c565b6040516101379190611cfe565b60405180910390f35b61014861044e565b6040516101559190611db2565b60405180910390f35b61017860048036038101906101739190611e0a565b6104e0565b6040516101859190611e78565b60405180910390f35b6101a860048036038101906101a39190611ebf565b610565565b005b6101c460048036038101906101bf9190611eff565b61067d565b005b6101e060048036038101906101db9190611eff565b6106dd565b005b6101fc60048036038101906101f79190611e0a565b6106fd565b6040516102099190611e78565b60405180910390f35b61022c60048036038101906102279190611f52565b6107af565b6040516102399190611f8e565b60405180910390f35b61024a610867565b005b6102546108ef565b6040516102619190611e78565b60405180910390f35b610272610919565b60405161027f9190611db2565b60405180910390f35b6102a2600480360381019061029d9190611fd5565b6109ab565b005b6102be60048036038101906102b9919061214a565b6109c1565b005b6102da60048036038101906102d59190611e0a565b610a23565b6040516102e79190611db2565b60405180910390f35b61030a6004803603810190610305919061222d565b610b75565b6040516103179190611f8e565b60405180910390f35b61033a6004803603810190610335919061227a565b610bf1565b6040516103479190611cfe565b60405180910390f35b61036a60048036038101906103659190611f52565b610c85565b005b60007f80ac58cd000000000000000000000000000000000000000000000000000000007bffffffffffffffffffffffffffffffffffffffffffffffffffffffff1916827bffffffffffffffffffffffffffffffffffffffffffffffffffffffff1916148061043757507f5b5e139f000000000000000000000000000000000000000000000000000000007bffffffffffffffffffffffffffffffffffffffffffffffffffffffff1916827bffffffffffffffffffffffffffffffffffffffffffffffffffffffff1916145b80610447575061044682610d7d565b5b9050919050565b60606000805461045d906122e9565b80601f0160208091040260200160405190810160405280929190818152602001828054610489906122e9565b80156104d65780601f106104ab576101008083540402835291602001916104d6565b820191906000526020600020905b8154815290600101906020018083116104b957829003601f168201915b5050505050905090565b60006104eb82610de7565b61052a576040517f08c379a00000000000000000000000000000000000000000000000000000000081526004016105219061238d565b60405180910390fd5b6004600083815260200190815260200160002060009054906101000a900473ffffffffffffffffffffffffffffffffffffffff169050919050565b6000610570826106fd565b90508073ffffffffffffffffffffffffffffffffffffffff168373ffffffffffffffffffffffffffffffffffffffff1614156105e1576040517f08c379a00000000000000000000000000000000000000000000000000000000081526004016105d89061241f565b60405180910390fd5b8073ffffffffffffffffffffffffffffffffffffffff16610600610e53565b73ffffffffffffffffffffffffffffffffffffffff16148061062f575061062e81610629610e53565b610bf1565b5b61066e576040517f08c379a0000000000000000000000000000000000000000000000000000000008152600401610665906124b1565b60405180910390fd5b6106788383610e5b565b505050565b61068e610688610e53565b82610f14565b6106cd576040517f08c379a00000000000000000000000000000000000000000000000000000000081526004016106c490612543565b60405180910390fd5b6106d8838383610ff2565b505050565b6106f8838383604051806020016040528060008152506109c1565b505050565b6000806002600084815260200190815260200160002060009054906101000a900473ffffffffffffffffffffffffffffffffffffffff169050600073ffffffffffffffffffffffffffffffffffffffff168173ffffffffffffffffffffffffffffffffffffffff1614156107a6576040517f08c379a000000000000000000000000000000000000000000000000000000000815260040161079d906125d5565b60405180910390fd5b80915050919050565b60008073ffffffffffffffffffffffffffffffffffffffff168273ffffffffffffffffffffffffffffffffffffffff161415610820576040517f08c379a000000000000000000000000000000000000000000000000000000000815260040161081790612667565b60405180910390fd5b600360008373ffffffffffffffffffffffffffffffffffffffff1673ffffffffffffffffffffffffffffffffffffffff168152602001908152602001600020549050919050565b61086f610e53565b73ffffffffffffffffffffffffffffffffffffffff1661088d6108ef565b73ffffffffffffffffffffffffffffffffffffffff16146108e3576040517f08c379a00000000000000000000000000000000000000000000000000000000081526004016108da906126d3565b60405180910390fd5b6108ed6000611259565b565b6000600760009054906101000a900473ffffffffffffffffffffffffffffffffffffffff16905090565b606060018054610928906122e9565b80601f0160208091040260200160405190810160405280929190818152602001828054610954906122e9565b80156109a15780601f10610976576101008083540402835291602001916109a1565b820191906000526020600020905b81548152906001019060200180831161098457829003601f168201915b5050505050905090565b6109bd6109b6610e53565b838361131f565b5050565b6109d26109cc610e53565b83610f14565b610a11576040517f08c379a0000000000000000000000000000000000000000000000000000000008152600401610a0890612543565b60405180910390fd5b610a1d8484848461148c565b50505050565b6060610a2e82610de7565b610a6d576040517f08c379a0000000000000000000000000000000000000000000000000000000008152600401610a6490612765565b60405180910390fd5b6000600660008481526020019081526020016000208054610a8d906122e9565b80601f0160208091040260200160405190810160405280929190818152602001828054610ab9906122e9565b8015610b065780601f10610adb57610100808354040283529160200191610b06565b820191906000526020600020905b815481529060010190602001808311610ae957829003601f168201915b505050505090506000610b176114e8565b9050600081511415610b2d578192505050610b70565b600082511115610b62578082604051602001610b4a9291906127c1565b60405160208183030381529060405292505050610b70565b610b6b846114ff565b925050505b919050565b6000610b8160086115a6565b6000610b8d60086115bc565b9050610b9933826115ca565b610be78185858080601f016020809104026020016040519081016040528093929190818152602001838380828437600081840152601f19601f820116905080830192505050505050506115e8565b8091505092915050565b6000600560008473ffffffffffffffffffffffffffffffffffffffff1673ffffffffffffffffffffffffffffffffffffffff16815260200190815260200160002060008373ffffffffffffffffffffffffffffffffffffffff1673ffffffffffffffffffffffffffffffffffffffff16815260200190815260200160002060009054906101000a900460ff16905092915050565b610c8d610e53565b73ffffffffffffffffffffffffffffffffffffffff16610cab6108ef565b73ffffffffffffffffffffffffffffffffffffffff1614610d01576040517f08c379a0000000000000000000000000000000000000000000000000000000008152600401610cf8906126d3565b60405180910390fd5b600073ffffffffffffffffffffffffffffffffffffffff168173ffffffffffffffffffffffffffffffffffffffff161415610d71576040517f08c379a0000000000000000000000000000000000000000000000000000000008152600401610d6890612857565b60405180910390fd5b610d7a81611259565b50565b60007f01ffc9a7000000000000000000000000000000000000000000000000000000007bffffffffffffffffffffffffffffffffffffffffffffffffffffffff1916827bffffffffffffffffffffffffffffffffffffffffffffffffffffffff1916149050919050565b60008073ffffffffffffffffffffffffffffffffffffffff166002600084815260200190815260200160002060009054906101000a900473ffffffffffffffffffffffffffffffffffffffff1673ffffffffffffffffffffffffffffffffffffffff1614159050919050565b600033905090565b816004600083815260200190815260200160002060006101000a81548173ffffffffffffffffffffffffffffffffffffffff021916908373ffffffffffffffffffffffffffffffffffffffff160217905550808273ffffffffffffffffffffffffffffffffffffffff16610ece836106fd565b73ffffffffffffffffffffffffffffffffffffffff167f8c5be1e5ebec7d5bd14f71427d1e84f3dd0314c0f7b2291e5b200ac8c7c3b92560405160405180910390a45050565b6000610f1f82610de7565b610f5e576040517f08c379a0000000000000000000000000000000000000000000000000000000008152600401610f55906128e9565b60405180910390fd5b6000610f69836106fd565b90508073ffffffffffffffffffffffffffffffffffffffff168473ffffffffffffffffffffffffffffffffffffffff161480610fab5750610faa8185610bf1565b5b80610fe957508373ffffffffffffffffffffffffffffffffffffffff16610fd1846104e0565b73ffffffffffffffffffffffffffffffffffffffff16145b91505092915050565b8273ffffffffffffffffffffffffffffffffffffffff16611012826106fd565b73ffffffffffffffffffffffffffffffffffffffff1614611068576040517f08c379a000000000000000000000000000000000000000000000000000000000815260040161105f9061297b565b60405180910390fd5b600073ffffffffffffffffffffffffffffffffffffffff168273ffffffffffffffffffffffffffffffffffffffff1614156110d8576040517f08c379a00000000000000000000000000000000000000000000000000000000081526004016110cf90612a0d565b60405180910390fd5b6110e383838361165c565b6110ee600082610e5b565b6001600360008573ffffffffffffffffffffffffffffffffffffffff1673ffffffffffffffffffffffffffffffffffffffff168152602001908152602001600020600082825461113e9190612a5c565b925050819055506001600360008473ffffffffffffffffffffffffffffffffffffffff1673ffffffffffffffffffffffffffffffffffffffff16815260200190815260200160002060008282546111959190612a90565b92505081905550816002600083815260200190815260200160002060006101000a81548173ffffffffffffffffffffffffffffffffffffffff021916908373ffffffffffffffffffffffffffffffffffffffff160217905550808273ffffffffffffffffffffffffffffffffffffffff168473ffffffffffffffffffffffffffffffffffffffff167fddf252ad1be2c89b69c2b068fc378daa952ba7f163c4a11628f55a4df523b3ef60405160405180910390a4611254838383611661565b505050565b6000600760009054906101000a900473ffffffffffffffffffffffffffffffffffffffff16905081600760006101000a81548173ffffffffffffffffffffffffffffffffffffffff021916908373ffffffffffffffffffffffffffffffffffffffff1602179055508173ffffffffffffffffffffffffffffffffffffffff168173ffffffffffffffffffffffffffffffffffffffff167f8be0079c531659141344cd1fd0a4f28419497f9722a3daafe3b4186f6b6457e060405160405180910390a35050565b8173ffffffffffffffffffffffffffffffffffffffff168373ffffffffffffffffffffffffffffffffffffffff16141561138e576040517f08c379a000000000000000000000000000000000000000000000000000000000815260040161138590612b32565b60405180910390fd5b80600560008573ffffffffffffffffffffffffffffffffffffffff1673ffffffffffffffffffffffffffffffffffffffff16815260200190815260200160002060008473ffffffffffffffffffffffffffffffffffffffff1673ffffffffffffffffffffffffffffffffffffffff16815260200190815260200160002060006101000a81548160ff0219169083151502179055508173ffffffffffffffffffffffffffffffffffffffff168373ffffffffffffffffffffffffffffffffffffffff167f17307eab39ab6107e8899845ad3d59bd9653f200f220920489ca2b5937696c318360405161147f9190611cfe565b60405180910390a3505050565b611497848484610ff2565b6114a384848484611666565b6114e2576040517f08c379a00000000000000000000000000000000000000000000000000000000081526004016114d990612bc4565b60405180910390fd5b50505050565b606060405180602001604052806000815250905090565b606061150a82610de7565b611549576040517f08c379a000000000000000000000000000000000000000000000000000000000815260040161154090612c56565b60405180910390fd5b60006115536114e8565b90506000815111611573576040518060200160405280600081525061159e565b8061157d846117ee565b60405160200161158e9291906127c1565b6040516020818303038152906040525b915050919050565b6001816000016000828254019250508190555050565b600081600001549050919050565b6115e482826040518060200160405280600081525061194f565b5050565b6115f182610de7565b611630576040517f08c379a000000000000000000000000000000000000000000000000000000000815260040161162790612ce8565b60405180910390fd5b80600660008481526020019081526020016000209080519060200190611657929190611ba7565b505050565b505050565b505050565b60006116878473ffffffffffffffffffffffffffffffffffffffff166119aa565b156117e1578373ffffffffffffffffffffffffffffffffffffffff1663150b7a026116b0610e53565b8786866040518563ffffffff1660e01b81526004016116d29493929190612d5d565b6020604051808303816000875af192505050801561170e57506040513d601f19601f8201168201806040525081019061170b9190612dbe565b60015b611791573d806000811461173e576040519150601f19603f3d011682016040523d82523d6000602084013e611743565b606091505b50600081511415611789576040517f08c379a000000000000000000000000000000000000000000000000000000000815260040161178090612bc4565b60405180910390fd5b805181602001fd5b63150b7a0260e01b7bffffffffffffffffffffffffffffffffffffffffffffffffffffffff1916817bffffffffffffffffffffffffffffffffffffffffffffffffffffffff1916149150506117e6565b600190505b949350505050565b60606000821415611836576040518060400160405280600181526020017f3000000000000000000000000000000000000000000000000000000000000000815250905061194a565b600082905060005b6000821461186857808061185190612deb565b915050600a826118619190612e63565b915061183e565b60008167ffffffffffffffff8111156118845761188361201f565b5b6040519080825280601f01601f1916602001820160405280156118b65781602001600182028036833780820191505090505b5090505b60008514611943576001826118cf9190612a5c565b9150600a856118de9190612e94565b60306118ea9190612a90565b60f81b818381518110611900576118ff612ec5565b5b60200101907effffffffffffffffffffffffffffffffffffffffffffffffffffffffffffff1916908160001a905350600a8561193c9190612e63565b94506118ba565b8093505050505b919050565b61195983836119cd565b6119666000848484611666565b6119a5576040517f08c379a000000000000000000000000000000000000000000000000000000000815260040161199c90612bc4565b60405180910390fd5b505050565b6000808273ffffffffffffffffffffffffffffffffffffffff163b119050919050565b600073ffffffffffffffffffffffffffffffffffffffff168273ffffffffffffffffffffffffffffffffffffffff161415611a3d576040517f08c379a0000000000000000000000000000000000000000000000000000000008152600401611a3490612f40565b60405180910390fd5b611a4681610de7565b15611a86576040517f08c379a0000000000000000000000000000000000000000000000000000000008152600401611a7d90612fac565b60405180910390fd5b611a926000838361165c565b6001600360008473ffffffffffffffffffffffffffffffffffffffff1673ffffffffffffffffffffffffffffffffffffffff1681526020019081526020016000206000828254611ae29190612a90565b92505081905550816002600083815260200190815260200160002060006101000a81548173ffffffffffffffffffffffffffffffffffffffff021916908373ffffffffffffffffffffffffffffffffffffffff160217905550808273ffffffffffffffffffffffffffffffffffffffff16600073ffffffffffffffffffffffffffffffffffffffff167fddf252ad1be2c89b69c2b068fc378daa952ba7f163c4a11628f55a4df523b3ef60405160405180910390a4611ba360008383611661565b5050565b828054611bb3906122e9565b90600052602060002090601f016020900481019282611bd55760008555611c1c565b82601f10611bee57805160ff1916838001178555611c1c565b82800160010185558215611c1c579182015b82811115611c1b578251825591602001919060010190611c00565b5b509050611c299190611c2d565b5090565b5b80821115611c46576000816000905550600101611c2e565b5090565b6000604051905090565b600080fd5b600080fd5b60007fffffffff0000000000000000000000000000000000000000000000000000000082169050919050565b611c9381611c5e565b8114611c9e57600080fd5b50565b600081359050611cb081611c8a565b92915050565b600060208284031215611ccc57611ccb611c54565b5b6000611cda84828501611ca1565b91505092915050565b60008115159050919050565b611cf881611ce3565b82525050565b6000602082019050611d136000830184611cef565b92915050565b600081519050919050565b600082825260208201905092915050565b60005b83811015611d53578082015181840152602081019050611d38565b83811115611d62576000848401525b50505050565b6000601f19601f8301169050919050565b6000611d8482611d19565b611d8e8185611d24565b9350611d9e818560208601611d35565b611da781611d68565b840191505092915050565b60006020820190508181036000830152611dcc8184611d79565b905092915050565b6000819050919050565b611de781611dd4565b8114611df257600080fd5b50565b600081359050611e0481611dde565b92915050565b600060208284031215611e2057611e1f611c54565b5b6000611e2e84828501611df5565b91505092915050565b600073ffffffffffffffffffffffffffffffffffffffff82169050919050565b6000611e6282611e37565b9050919050565b611e7281611e57565b82525050565b6000602082019050611e8d6000830184611e69565b92915050565b611e9c81611e57565b8114611ea757600080fd5b50565b600081359050611eb981611e93565b92915050565b60008060408385031215611ed657611ed5611c54565b5b6000611ee485828601611eaa565b9250506020611ef585828601611df5565b9150509250929050565b600080600060608486031215611f1857611f17611c54565b5b6000611f2686828701611eaa565b9350506020611f3786828701611eaa565b9250506040611f4886828701611df5565b9150509250925092565b600060208284031215611f6857611f67611c54565b5b6000611f7684828501611eaa565b91505092915050565b611f8881611dd4565b82525050565b6000602082019050611fa36000830184611f7f565b92915050565b611fb281611ce3565b8114611fbd57600080fd5b50565b600081359050611fcf81611fa9565b92915050565b60008060408385031215611fec57611feb611c54565b5b6000611ffa85828601611eaa565b925050602061200b85828601611fc0565b9150509250929050565b600080fd5b600080fd5b7f4e487b7100000000000000000000000000000000000000000000000000000000600052604160045260246000fd5b61205782611d68565b810181811067ffffffffffffffff821117156120765761207561201f565b5b80604052505050565b6000612089611c4a565b9050612095828261204e565b919050565b600067ffffffffffffffff8211156120b5576120b461201f565b5b6120be82611d68565b9050602081019050919050565b82818337600083830152505050565b60006120ed6120e88461209a565b61207f565b9050828152602081018484840111156121095761210861201a565b5b6121148482856120cb565b509392505050565b600082601f83011261213157612130612015565b5b81356121418482602086016120da565b91505092915050565b6000806000806080858703121561216457612163611c54565b5b600061217287828801611eaa565b945050602061218387828801611eaa565b935050604061219487828801611df5565b925050606085013567ffffffffffffffff8111156121b5576121b4611c59565b5b6121c18782880161211c565b91505092959194509250565b600080fd5b600080fd5b60008083601f8401126121ed576121ec612015565b5b8235905067ffffffffffffffff81111561220a576122096121cd565b5b602083019150836001820283011115612226576122256121d2565b5b9250929050565b6000806020838503121561224457612243611c54565b5b600083013567ffffffffffffffff81111561226257612261611c59565b5b61226e858286016121d7565b92509250509250929050565b6000806040838503121561229157612290611c54565b5b600061229f85828601611eaa565b92505060206122b085828601611eaa565b9150509250929050565b7f4e487b7100000000000000000000000000000000000000000000000000000000600052602260045260246000fd5b6000600282049050600182168061230157607f821691505b60208210811415612315576123146122ba565b5b50919050565b7f4552433732313a20617070726f76656420717565727920666f72206e6f6e657860008201527f697374656e7420746f6b656e0000000000000000000000000000000000000000602082015250565b6000612377602c83611d24565b91506123828261231b565b604082019050919050565b600060208201905081810360008301526123a68161236a565b9050919050565b7f4552433732313a20617070726f76616c20746f2063757272656e74206f776e6560008201527f7200000000000000000000000000000000000000000000000000000000000000602082015250565b6000612409602183611d24565b9150612414826123ad565b604082019050919050565b60006020820190508181036000830152612438816123fc565b9050919050565b7f4552433732313a20617070726f76652063616c6c6572206973206e6f74206f7760008201527f6e6572206e6f7220617070726f76656420666f7220616c6c0000000000000000602082015250565b600061249b603883611d24565b91506124a68261243f565b604082019050919050565b600060208201905081810360008301526124ca8161248e565b9050919050565b7f4552433732313a207472616e736665722063616c6c6572206973206e6f74206f60008201527f776e6572206e6f7220617070726f766564000000000000000000000000000000602082015250565b600061252d603183611d24565b9150612538826124d1565b604082019050919050565b6000602082019050818103600083015261255c81612520565b9050919050565b7f4552433732313a206f776e657220717565727920666f72206e6f6e657869737460008201527f656e7420746f6b656e0000000000000000000000000000000000000000000000602082015250565b60006125bf602983611d24565b91506125ca82612563565b604082019050919050565b600060208201905081810360008301526125ee816125b2565b9050919050565b7f4552433732313a2062616c616e636520717565727920666f7220746865207a6560008201527f726f206164647265737300000000000000000000000000000000000000000000602082015250565b6000612651602a83611d24565b915061265c826125f5565b604082019050919050565b6000602082019050818103600083015261268081612644565b9050919050565b7f4f776e61626c653a2063616c6c6572206973206e6f7420746865206f776e6572600082015250565b60006126bd602083611d24565b91506126c882612687565b602082019050919050565b600060208201905081810360008301526126ec816126b0565b9050919050565b7f45524337323155524953746f726167653a2055524920717565727920666f722060008201527f6e6f6e6578697374656e7420746f6b656e000000000000000000000000000000602082015250565b600061274f603183611d24565b915061275a826126f3565b604082019050919050565b6000602082019050818103600083015261277e81612742565b9050919050565b600081905092915050565b600061279b82611d19565b6127a58185612785565b93506127b5818560208601611d35565b80840191505092915050565b60006127cd8285612790565b91506127d98284612790565b91508190509392505050565b7f4f776e61626c653a206e6577206f776e657220697320746865207a65726f206160008201527f6464726573730000000000000000000000000000000000000000000000000000602082015250565b6000612841602683611d24565b915061284c826127e5565b604082019050919050565b6000602082019050818103600083015261287081612834565b9050919050565b7f4552433732313a206f70657261746f7220717565727920666f72206e6f6e657860008201527f697374656e7420746f6b656e0000000000000000000000000000000000000000602082015250565b60006128d3602c83611d24565b91506128de82612877565b604082019050919050565b60006020820190508181036000830152612902816128c6565b9050919050565b7f4552433732313a207472616e736665722066726f6d20696e636f72726563742060008201527f6f776e6572000000000000000000000000000000000000000000000000000000602082015250565b6000612965602583611d24565b915061297082612909565b604082019050919050565b6000602082019050818103600083015261299481612958565b9050919050565b7f4552433732313a207472616e7366657220746f20746865207a65726f2061646460008201527f7265737300000000000000000000000000000000000000000000000000000000602082015250565b60006129f7602483611d24565b9150612a028261299b565b604082019050919050565b60006020820190508181036000830152612a26816129ea565b9050919050565b7f4e487b7100000000000000000000000000000000000000000000000000000000600052601160045260246000fd5b6000612a6782611dd4565b9150612a7283611dd4565b925082821015612a8557612a84612a2d565b5b828203905092915050565b6000612a9b82611dd4565b9150612aa683611dd4565b9250827fffffffffffffffffffffffffffffffffffffffffffffffffffffffffffffffff03821115612adb57612ada612a2d565b5b828201905092915050565b7f4552433732313a20617070726f766520746f2063616c6c657200000000000000600082015250565b6000612b1c601983611d24565b9150612b2782612ae6565b602082019050919050565b60006020820190508181036000830152612b4b81612b0f565b9050919050565b7f4552433732313a207472616e7366657220746f206e6f6e20455243373231526560008201527f63656976657220696d706c656d656e7465720000000000000000000000000000602082015250565b6000612bae603283611d24565b9150612bb982612b52565b604082019050919050565b60006020820190508181036000830152612bdd81612ba1565b9050919050565b7f4552433732314d657461646174613a2055524920717565727920666f72206e6f60008201527f6e6578697374656e7420746f6b656e0000000000000000000000000000000000602082015250565b6000612c40602f83611d24565b9150612c4b82612be4565b604082019050919050565b60006020820190508181036000830152612c6f81612c33565b9050919050565b7f45524337323155524953746f726167653a2055524920736574206f66206e6f6e60008201527f6578697374656e7420746f6b656e000000000000000000000000000000000000602082015250565b6000612cd2602e83611d24565b9150612cdd82612c76565b604082019050919050565b60006020820190508181036000830152612d0181612cc5565b9050919050565b600081519050919050565b600082825260208201905092915050565b6000612d2f82612d08565b612d398185612d13565b9350612d49818560208601611d35565b612d5281611d68565b840191505092915050565b6000608082019050612d726000830187611e69565b612d7f6020830186611e69565b612d8c6040830185611f7f565b8181036060830152612d9e8184612d24565b905095945050505050565b600081519050612db881611c8a565b92915050565b600060208284031215612dd457612dd3611c54565b5b6000612de284828501612da9565b91505092915050565b6000612df682611dd4565b91507fffffffffffffffffffffffffffffffffffffffffffffffffffffffffffffffff821415612e2957612e28612a2d565b5b600182019050919050565b7f4e487b7100000000000000000000000000000000000000000000000000000000600052601260045260246000fd5b6000612e6e82611dd4565b9150612e7983611dd4565b925082612e8957612e88612e34565b5b828204905092915050565b6000612e9f82611dd4565b9150612eaa83611dd4565b925082612eba57612eb9612e34565b5b828206905092915050565b7f4e487b7100000000000000000000000000000000000000000000000000000000600052603260045260246000fd5b7f4552433732313a206d696e7420746f20746865207a65726f2061646472657373600082015250565b6000612f2a602083611d24565b9150612f3582612ef4565b602082019050919050565b60006020820190508181036000830152612f5981612f1d565b9050919050565b7f4552433732313a20746f6b656e20616c7265616479206d696e74656400000000600082015250565b6000612f96601c83611d24565b9150612fa182612f60565b602082019050919050565b60006020820190508181036000830152612fc581612f89565b905091905056fea264697066735822122012dcaf5a5d96117331fae81af937b786dba37618506de880bd891f139a373d7e64736f6c634300080b0033",
  "linkReferences": {},
  "deployedLinkReferences": {}
}